:100000000C942A000C943F000C943F000C943F0089
:100010000C943F000C943F000C943F000C943F0064
:100020000C943F000C943F000C943F000C943F0054
:100030000C943F000C943F000C943F000C943F0044
:100040000C943F000C943F000C943F000C943F0034
:100050000C943F0011241FBECFE5D8E0DEBFCDBF1A
:1000600010E0A0E6B0E0ECEFF0E002C005900D92E9
:10007000AA36B107D9F70E9465000C947C000C9455
:100080000000CF93DF93CDB7DEB72A970FB6F89471
:10009000DEBF0FBECDBF2AE0E0E6F0E0DE01119644
:1000A00001900D922A95E1F78A3091052CF4FE011A
:1000B000E80FF91F818182BB2A960FB6F894DEBF44
:1000C0000FBECDBFDF91CF91089581B38FEF81BB7C
:1000D00082BBC0E0D0E0CE010E9441002FEF89E654
:1000E00098E1215080409040E1F700C00000219647
:0C00F000CA30D10581F7EDCFF894FFCFA6
:0A00FC003F065B4F666D7D077F6FC6
:00000001FF
